{
  "_format": "hh-sol-artifact-1",
  "contractName": "RatingNet",
  "sourceName": "contracts/RatingNet.sol",
  "abi": [
    {
      "inputs": [],
      "name": "ZamaProtocolUnsupported",
      "type": "error"
    },
    {
      "inputs": [],
      "name": "confidentialProtocolId",
      "outputs": [
        {
          "internalType": "uint256",
          "name": "",
          "type": "uint256"
        }
      ],
      "stateMutability": "view",
      "type": "function"
    },
    {
      "inputs": [
        {
          "internalType": "address",
          "name": "subject",
          "type": "address"
        }
      ],
      "name": "getCount",
      "outputs": [
        {
          "internalType": "uint32",
          "name": "",
          "type": "uint32"
        }
      ],
      "stateMutability": "view",
      "type": "function"
    },
    {
      "inputs": [
        {
          "internalType": "address",
          "name": "subject",
          "type": "address"
        }
      ],
      "name": "getEncryptedAverage",
      "outputs": [
        {
          "internalType": "euint32",
          "name": "",
          "type": "bytes32"
        }
      ],
      "stateMutability": "nonpayable",
      "type": "function"
    },
    {
      "inputs": [
        {
          "internalType": "address",
          "name": "subject",
          "type": "address"
        }
      ],
      "name": "getEncryptedSum",
      "outputs": [
        {
          "internalType": "euint32",
          "name": "",
          "type": "bytes32"
        }
      ],
      "stateMutability": "view",
      "type": "function"
    },
    {
      "inputs": [
        {
          "internalType": "address",
          "name": "subject",
          "type": "address"
        },
        {
          "internalType": "externalEuint8",
          "name": "cipherScore",
          "type": "bytes32"
        },
        {
          "internalType": "bytes",
          "name": "inputProof",
          "type": "bytes"
        }
      ],
      "name": "submitEncryptedScore",
      "outputs": [],
      "stateMutability": "nonpayable",
      "type": "function"
    }
  ],
  "bytecode": "0x608060405234801561000f575f5ffd5b506100c461001b6100c9565b80517f9e7b61f58c47dc699ac88507c4f5bb9f121c03808c5676a8078fe583e464970080546001600160a01b03199081166001600160a01b039384161790915560208301517f9e7b61f58c47dc699ac88507c4f5bb9f121c03808c5676a8078fe583e46497018054831691841691909117905560408301517f9e7b61f58c47dc699ac88507c4f5bb9f121c03808c5676a8078fe583e46497028054909216921691909117905550565b610238565b604080516060810182525f808252602082018190529181019190915246600103610122575060408051606080820183525f8083526020808401829052928401819052835191820184528082529181018290529182015290565b4662aa36a7036101a1575060408051606080820183525f8083526020808401829052928401528251908101835273f0ffdc93b7e186bc2f8cb3daa75d86d1930a433d81527392c920834ec8941d2c77d188936e1f7a6f49c1279181019190915273be0e383937d564d7ff0bc3b46c51f0bf8d5c311a9181019190915290565b46617a690361021f575060408051606080820183525f8083526020808401829052928401528251908101835273f0ffdc93b7e186bc2f8cb3daa75d86d1930a433d81527392c920834ec8941d2c77d188936e1f7a6f49c1279181019190915273be0e383937d564d7ff0bc3b46c51f0bf8d5c311a9181019190915290565b6040516373cac13b60e01b815260040160405180910390fd5b610b62806102455f395ff3fe608060405234801561000f575f5ffd5b5060043610610064575f3560e01c80634f0cd27b1161004d5780634f0cd27b146100b85780638927b030146100fe578063b095f42214610106575f5ffd5b80632b5424e3146100685780633636f45f1461007d575b5f5ffd5b61007b6100763660046109d4565b610119565b005b6100a561008b366004610a57565b6001600160a01b03165f9081526020819052604090205490565b6040519081526020015b60405180910390f35b6100e96100c6366004610a57565b6001600160a01b03165f9081526020819052604090206001015463ffffffff1690565b60405163ffffffff90911681526020016100af565b6100a561020a565b6100a5610114366004610a57565b610218565b5f6101598484848080601f0160208091040260200160405190810160405280939291908181526020018383808284375f920191909152506102a292505050565b90505f61016660016102b6565b90505f61017360056102b6565b90505f61018961018385856102cb565b836102f9565b90505f61019582610327565b6001600160a01b038a165f908152602081905260409020549091506101ba9082610333565b6001600160a01b038a165f9081526020819052604090208181556001908101805463ffffffff19811663ffffffff918216909301169190911790556101fe90610361565b50505050505050505050565b5f610213610370565b905090565b6001600160a01b0381165f9081526020819052604081206001810154829063ffffffff1681036102525761024b5f6103a4565b9050610286565b5f610269835f015461026460646103a4565b6103b6565b600184015490915061028290829063ffffffff166103e4565b9150505b6102908133610406565b5061029a81610361565b509392505050565b5f6102af83836002610418565b9392505050565b5f6102c58260ff166002610525565b92915050565b5f826102dd576102da5f6102b6565b92505b816102ee576102eb5f6102b6565b91505b6102af83835f6105cf565b5f8261030b576103085f6102b6565b92505b8161031c576103195f6102b6565b91505b6102af83835f61069f565b5f6102c5826004610729565b5f82610345576103425f6103a4565b92505b81610356576103535f6103a4565b91505b6102af83835f61078b565b5f61036c8230610815565b5090565b5f4660010361037f5750600190565b4662aa36a703610390575061271190565b46617a690361039f57505f1990565b505f90565b5f6102c58263ffffffff166004610525565b5f826103c8576103c55f6103a4565b92505b816103d9576103d65f6103a4565b91505b6102af83835f61088b565b5f826103f6576103f35f6103a4565b92505b6102af8363ffffffff8416610915565b5f6104118383610815565b5090919050565b7f9e7b61f58c47dc699ac88507c4f5bb9f121c03808c5676a8078fe583e46497015460405163045fc19560e11b81525f915f516020610b0d5f395f51905f52916001600160a01b03909116906308bf832a9061047e908890339089908990600401610a90565b6020604051808303815f875af115801561049a573d5f5f3e3d5ffd5b505050506040513d601f19601f820116820180604052508101906104be9190610ae1565b8154604051630f8e573b60e21b8152600481018390523360248201529193506001600160a01b031690633e395cec906044015f604051808303815f87803b158015610507575f5ffd5b505af1158015610519573d5f5f3e3d5ffd5b50505050509392505050565b7f9e7b61f58c47dc699ac88507c4f5bb9f121c03808c5676a8078fe583e464970154604051639cd07acb60e01b81525f915f516020610b0d5f395f51905f52916001600160a01b0390911690639cd07acb906105879087908790600401610af8565b6020604051808303815f875af11580156105a3573d5f5f3e3d5ffd5b505050506040513d601f19601f820116820180604052508101906105c79190610ae1565b949350505050565b5f5f82156105e25750600160f81b6105e5565b505f5b7f9e7b61f58c47dc699ac88507c4f5bb9f121c03808c5676a8078fe583e464970154604051630d8c635960e21b815260048101879052602481018690526001600160f81b0319831660448201525f516020610b0d5f395f51905f52916001600160a01b0316906336318d64906064015b6020604051808303815f875af1158015610671573d5f5f3e3d5ffd5b505050506040513d601f19601f820116820180604052508101906106959190610ae1565b9695505050505050565b5f5f82156106b25750600160f81b6106b5565b505f5b7f9e7b61f58c47dc699ac88507c4f5bb9f121c03808c5676a8078fe583e4649701546040516304559f7160e01b815260048101879052602481018690526001600160f81b0319831660448201525f516020610b0d5f395f51905f52916001600160a01b0316906304559f7190606401610655565b7f9e7b61f58c47dc699ac88507c4f5bb9f121c03808c5676a8078fe583e4649701546040516307227b9160e21b81525f915f516020610b0d5f395f51905f52916001600160a01b0390911690631c89ee44906105879087908790600401610af8565b5f5f821561079e5750600160f81b6107a1565b505f5b7f9e7b61f58c47dc699ac88507c4f5bb9f121c03808c5676a8078fe583e46497015460405163022f65e760e31b815260048101879052602481018690526001600160f81b0319831660448201525f516020610b0d5f395f51905f52916001600160a01b03169063117b2f3890606401610655565b5f5f516020610b0d5f395f51905f528054604051635ca4b5b160e11b8152600481018690526001600160a01b03858116602483015292935091169063b9496b62906044015f604051808303815f87803b158015610870575f5ffd5b505af1158015610882573d5f5f3e3d5ffd5b50505050505050565b5f5f821561089e5750600160f81b6108a1565b505f5b7f9e7b61f58c47dc699ac88507c4f5bb9f121c03808c5676a8078fe583e464970154604051630afe14ad60e31b815260048101879052602481018690526001600160f81b0319831660448201525f516020610b0d5f395f51905f52916001600160a01b0316906357f0a56890606401610655565b5f600160f81b815f516020610b0d5f395f51905f526001810154604051635a53accb60e01b815260048101889052602481018790526001600160f81b0319851660448201529192506001600160a01b031690635a53accb906064016020604051808303815f875af115801561098c573d5f5f3e3d5ffd5b505050506040513d601f19601f820116820180604052508101906109b09190610ae1565b95945050505050565b80356001600160a01b03811681146109cf575f5ffd5b919050565b5f5f5f5f606085870312156109e7575f5ffd5b6109f0856109b9565b935060208501359250604085013567ffffffffffffffff811115610a12575f5ffd5b8501601f81018713610a22575f5ffd5b803567ffffffffffffffff811115610a38575f5ffd5b876020828401011115610a49575f5ffd5b949793965060200194505050565b5f60208284031215610a67575f5ffd5b6102af826109b9565b60548110610a8c57634e487b7160e01b5f52602160045260245ffd5b9052565b8481526001600160a01b0384166020820152608060408201525f8351806080840152806020860160a085015e5f60a0828501015260a0601f19601f8301168401019150506109b06060830184610a70565b5f60208284031215610af1575f5ffd5b5051919050565b828152604081016102af6020830184610a7056fe9e7b61f58c47dc699ac88507c4f5bb9f121c03808c5676a8078fe583e4649700a2646970667358221220e7396b80671338d0bffae18ffe1ceb1f6fe79d9f59514c6b55e40f7c198c8dcb64736f6c634300081b0033",
  "linkReferences": {},
  "deployedLinkReferences": {}
}